:020000040800F2
:10000000D0370020DD010008011A0008071200089F
:10001000D51700086D020008B91F00080000000095
:100020000000000000000000000000004501000882
:100030009D0200080000000089010008D51B00088F
:10004000F7010008F7010008F7010008F7010008B0
:10005000F7010008F7010008F7010008F7010008A0
:10006000F7010008F7010008F7010008F701000890
:10007000F7010008F7010008F7010008F701000880
:10008000F7010008F7010008F7010008F701000870
:10009000F7010008F7010008F7010008F701000860
:1000A000F7010008F7010008F7010008F701000850
:1000B000991C0008A51C0008F7010008F7010008BA
:1000C000F7010008F7010008F7010008F701000830
:1000D000F7010008AD1F0008F7010008F70100084C
:1000E000F7010008F7010008F7010008F701000810
:1000F000F7010008F7010008F7010008F701000800
:10010000F7010008F7010008F7010008F7010008EF
:10011000F7010008F7010008F7010008F7010008DF
:10012000F7010008F7010008F7010008F7010008CF
:10013000DFF80CD000F088F800480047F91F0008ED
:10014000D0370020224B19680868B0E8F00F80F320
:100150000988BFF36F8F4FF0000080F311884EF0D5
:100160000D0E70470000000006480068006880F32C
:10017000088862B661B6BFF34F8FBFF36F8F00DFA1
:1001800000BF00BF08ED00E0EFF30980BFF36F8F01
:100190000F4B1A6820E9F00F106008B54FF05000BF
:1001A00080F31188BFF34F8FBFF36F8F02F0DEFA39
:1001B0004FF0000080F31188BDE808401968086816
:1001C000B0E8F00F80F30988BFF36F8F704700BF6E
:1001D0003C000020EFF30580704700000648804790
:1001E00006480047FEE7FEE7FEE7FEE7FEE7FEE71C
:1001F000FEE7FEE7FEE7FEE7511C000831010008BC
:1002000040EA01039B0703D009E008C9121F08C098
:10021000042AFAD203E011F8013B00F8013B521E18
:10022000F9D27047D2B201E000F8012B491EFBD28F
:1002300070470022F6E710B513460A4604461946F1
:10024000FFF7F0FF204610BD064C074D06E0E068C2
:1002500040F0010394E8070098471034AC42F6D30D
:10026000FFF76AFF6C2D00088C2D0008FEE70000E8
:1002700070B5094DFF22134605F5807606E000BFF4
:1002800010F8014B54402A5D5A40335D491E89B233
:10029000F6D243EA022070BDAC2A000870477047CE
:1002A0002DE9F05F90F821100024022903D00421E9
:1002B0008163012485E001680A6822F00E020A6069
:1002C00001680A6822F001020A603F4E3E4FB215F3
:1002D000DFF8F4C0DFF8F090DFF8ECA0DFF8E8B06A
:1002E000DFF8E4E00168783F13011502ACF1640C1B
:1002F000A9F15009AAF13C0AABF1280BAEF1140E9A
:100300004FF48018B14227D9B9420ED0614512D0BE
:1003100049451DD0514518D0594518D0714501D1D6
:10032000424615E0294EB14201D1012210E0274E8C
:100330001436B14201D110220AE0244E2836B142CF
:1003400006D0224A3C32914201D11A4600E02A46A8
:100350001E49091F0A602BE0B94213D0614517D02E
:10036000494522D051451DD059451DD0714501D177
:1003700042461AE0B14202D14FF0807215E0134EAE
:10038000B14201D1012210E0104E1436B14201D128
:1003900010220AE00D4E2836B14206D00B4A3C32FC
:1003A000914201D11A4600E02A46074980394A6045
:1003B000012180F82110002180F82010416B01B14B
:1003C00088472046BDE8F09F8000024008040240B4
:1003D0002DE9F84FDFF8C891002409F1040A0AF169
:1003E000040B23460F270BF1040ED1E00125A54095
:1003F00006EA0502AA4276D1DFF8A8C14E68A6EB4C
:100400000C0866452BD00DDC032E34D005DC36B34A
:10041000012E19D0022E2FD11BE0112E16D0122E34
:100420002AD119E0B8F5881F19D006DCB8F5803F4D
:1004300015D0B8F5801F1FD111E0B8F5001F0ED000
:10044000B8F5041F18D10AE0CB6815E0CB681B1D76
:1004500012E0CB6808330FE0CB680C330CE08B68FC
:100460002BB1012B4FF0080303D0456104E00423B6
:1004700002E0056100E00023FF2A01D8064601E002
:1004800000F104064FEA840501D9A5F12005D6F84C
:10049000008007FA05FC28EA0C0803FA05F548EA8B
:1004A0000508C6F800804D68ED0070D53E4DAE6978
:1004B00046F00106AE61AD6924F0030605F00105C2
:1004C00000953A4D06EB050CDCF80850A607360FF0
:1004D00007FA06F825EA0805DFF8D480404503D17D
:1004E0004FF0000825E052E0DFF8C880404502D117
:1004F0004FF001081DE0DFF8C080404502D14FF009
:10050000020816E0DFF8B480404502D14FF003083E
:100510000FE0DFF8AC80404502D14FF0040808E05E
:10052000DFF8A080404502D14FF0050801E04FF010
:10053000060808FA06F848EA0508CCF808804D686D
:10054000D9F80060ED034D4601D5164300E096430F
:100550002E604D68DAF80060AD03554601D51643AC
:1005600000E096432E604D68DBF80060ED025D46CA
:1005700001D5164300E096432E604D68DEF800601A
:10058000AD02754601D5164300E096432E60641C0B
:100590000A681646E2407FF429AFBDE8F88F0000F4
:1005A0000004014000001110001002400000014052
:1005B00000080140000C01400010014000140140FF
:1005C00000180140001C01408068084000D0012054
:1005D0007047C2680A4201D04161704701617047AB
:1005E0000AB1016170470904FBE700000148806817
:1005F000704700002C0000200248816802781144F6
:10060000816070472C000020074810B5016841F058
:1006100010010160032000F095F8002000F006F8BA
:1006200000F03EF8002010BD0020024000B5014659
:1006300087B000221C2000F065F81C2000F054F860
:100640001448C16941F00101C161C06905A900F008
:1006500001000690684600F01DF900F03BF90E49D4
:100660004000B0FBF1F10D484FF08042491E02609E
:10067000416040F2E7320021C0E90321816000F0CF
:1006800032FB10B1012007B000BD044800F064FB4C
:10069000F9E700000010024040420F00A8240020AB
:1006A0000F4808B5816941F001018161816901F05C
:1006B00001010091C16941F08051C161C06900220E
:1006C00000F0805000900F21901E00F01BF80548AC
:1006D000416821F0E06141F00071416008BD000017
:1006E0000010024000000140002809DB00F01F025A
:1006F000012191404009800000F1E020C0F8001184
:1007000070470000F0B40E4B1B680C46C3F3022385
:10071000C3F10705042D00D90425191D072901D2AD
:10072000002300E0DB1E012606FA05F1491E2140E8
:1007300099409E40761E16403143F0BC01F03DBC0E
:100740000CED00E0064900F0070208684FF6FF03D1
:10075000184040EA0220034A104308607047000036
:100760000CED00E00000FA052DE9F0470F4605000A
:1007700061D0434E306800F00700B84209D23068BB
:1007800020F0070038433060306800F00700B842BE
:1007900051D128683B4C810712D5400703D56068CA
:1007A00040F4E06060602878000703D5606840F49A
:1007B000605060606068A96820F0F00008436060E5
:1007C0002878C00728D06868012810D0216802283E
:1007D00010D0890700292EDA616821F00301014356
:1007E0006160FFF703FF804641F288390DE0216820
:1007F0008903EFE78901EDE7FFF7F8FEA0EB0801B9
:10080000494502D90320BDE8F0876068696800F0B7
:100810000C00B0EB810FEFD1306800F00700B84258
:100820000BD9306820F0070038433060306800F0A2
:100830000700B84201D00120E5E72878400705D538
:100840006068E96820F4E060084360602878000789
:1008500006D56068296920F4605040EAC1006060F4
:1008600000F058F86168084AC1F30311515CC840B0
:100870000649086006480068FFF7D8FE0020C2E776
:1008800000200240001002401C2D0008380000200B
:10089000300000200F2202600C4A536803F003036B
:1008A0004360536803F0F0038360536803F4E0632C
:1008B000C36052684FF4E06303EAD2020261044865
:1008C000006800F007000860704700000010024058
:1008D000002002400448054900684968044AC1F301
:1008E0000221515CC84070473800002000100240CF
:1008F0002C2D00080448054900684968044AC1F3E2
:10090000C221515CC84070473800002000100240EE
:100910002C2D000812A185B00FC98DE80F0014A07E
:10092000144A006804905168134801F00C03042B2A
:1009300010D0082B0ED1C1F38343C9031DF8030067
:100940000AD5516804AAC1F34041515C0A4A504398
:10095000B0FBF1F005B0704708494843FAE70000E2
:1009600002030405060708090A0B0C0D0E0F1010F0
:10097000010200000010024000127A0000093D0050
:100980002DE9F84F040070D02078C04DC00749D041
:100990006868C0F38100012807D06868C0F381004F
:1009A000022809D16868C00306D52868800339D5B4
:1009B00060680028E7D035E06068B0F5803F0BD074
:1009C00010B1B0F5A02F11D0286820F48030286035
:1009D000286820F4802002E0286840F480302860F5
:1009E000606890B1FFF702FE06460AE0286840F40E
:1009F00080202860F0E700BFFFF7F8FD801B642827
:100A000073D828688003F7D50CE0FFF7EFFD0646A2
:100A100005E000BFFFF7EAFD801B6428F0D82868D6
:100A20008003F7D420789A4E80074FF001094FF0E9
:100A3000000839D5686810F00C0F07D06868C0F35B
:100A40008100022809D16868C00306D4286880079D
:100A500014D52069012808D110E02069B0B1C6F88A
:100A60000090FFF7C3FD074605E00AE1FFF7BEFD72
:100A7000C01B0228C4D828688007F7D52868616998
:100A800020F0F80040EAC10028600DE0C6F80080C0
:100A9000FFF7ACFD074604E0FFF7A8FDC01B0228E6
:100AA00023D828688007F7D4207800072CD5794808
:100AB000A169D9B1C0F80090FFF798FD074604E09E
:100AC000FFF794FDC01B02280FD8686A8007F7D58E
:100AD00071484FF4FA510068B0FBF1F0009000BF8C
:100AE0000098411E0091FAD20EE080E0C0F800802C
:100AF000FFF77CFD074604E0FFF778FDC01B0228E6
:100B000075D8686A8007F7D42078400760D5E8690F
:100B10000027C00008D4E86940F08050E861E86927
:100B2000012700F0805000905C480168C90513D48B
:100B30000168834641F480710160FFF757FD8246EA
:100B400006E000BFFFF752FDA0EB0A0064284ED874
:100B5000DBF80000C005F5D5E06801280AD008B12F
:100B6000052813D0286A20F001002862286A20F0A6
:100B7000040002E0286A40F001002862E06841F2C7
:100B8000883B98B1FFF732FD82460BE0286A40F0BF
:100B900004002862EEE700BFFFF728FDA0EB0A0182
:100BA00059455AD8286A8007F6D50CE0FFF71EFD94
:100BB000824605E0FFF71AFDA0EB0A0159454CD823
:100BC000286A8007F6D41FB1E86920F08050E861F8
:100BD000E06988B36968C1F38101022944D0022821
:100BE000C6F8608004D0FFF701FD044638E034E029
:100BF000FFF7FCFC074604E0FFF7F8FCC01B0228E7
:100C00002BD828688001F7D4206AB0F5803F05D141
:100C10006868A16820F4003008436860D4E90801DE
:100C20000843696821F4741108436860C6F860904D
:100C3000FFF7DCFC044606E025E000BFFFF7D6FC2A
:100C4000001B022809D828688001F7D51BE000BFE7
:100C5000FFF7CCFC001B022802D90320BDE8F88F67
:100C600028688001F4D40EE00128F7D06868226A71
:100C700000F48031914204D1616A00F4701088421E
:100C800001D00120EAE70020E8E700000010024060
:100C900000004242800442423800002000700040C0
:100CA0007047704770B590F83C20012A19D0012494
:100CB00000F83C4F0222427050F83C3C5A689D6854
:100CC00022F070060A684968324325F080052943FE
:100CD0005A6050F83C2C9160447000210170084625
:100CE00070BD022070BD10B5040003D094F83D0023
:100CF00010B107E0012010BD002084F83C00204620
:100D000000F00CF8022084F83D00211D206800F05E
:100D1000CFFF012084F83D00002010BD08B5006819
:100D20000B49884212D10B48C16941F00201C161EF
:100D3000C069002200F00200009005211D20FFF78D
:100D4000E1FCBDE808401D20FFF7CEBC08BD000057
:100D500000040040001002400168CA6842F001022D
:100D6000CA600068816801F00701062903D00168A4
:100D700041F0010101600020704770B5044690F811
:100D80003C00012817D0012584F83C50022084F84B
:100D90003D002068826822F0770222F47F42826060
:100DA0000868502830D00DDC20284DD005DC98B3E1
:100DB00010283BD148E0022070BD302844D04028A4
:100DC00034D139E0602828D0702806D0B0F5805F93
:100DD0002CD0B0F5005F29D10AE0CB68D1E9012120
:100DE000206800F0ABFF2068816841F0770109E0DE
:100DF000CB68D1E90121206800F0A0FF206881685C
:100E000041F48041816011E0CA684968206800F0BF
:100E1000A7FF5021206807E016E0CA6849682068EB
:100E200000F0AFFF6021206800F092FF84F83D5091
:100E3000002084F83C0070BDCA684968206800F052
:100E40008FFF40212068EFE7226801461046EBE75C
:100E5000704770B50446006801694FF00005C9434A
:100E6000890715D4C168C943890711D4E91E0161F6
:100E700001202077206880698007204602D0FFF794
:100E8000E7FF04E000F098F8204600F096F8257798
:100E900020680169C943490717D4C168C943490794
:100EA00013D46FF00401016102202077206880696B
:100EB00010F4407F204602D0FFF7CAFF04E000F0A4
:100EC0007BF8204600F079F8257720680169C9434E
:100ED000090716D4C168C943090712D46FF0080185
:100EE0000161042020772068C0698007204602D075
:100EF000FFF7AEFF04E000F05FF8204600F05DF879
:100F0000257720680169C943C90617D4C168C94358
:100F1000C90613D46FF01001016108202077206802
:100F2000C06910F4407F204602D0FFF791FF04E033
:100F300000F042F8204600F040F82577206801696B
:100F4000C943C90708D1C168C943C90704D1891E6B
:100F50000161204600F032F820680169C9430906A2
:100F600009D4C168C943090605D46FF08001016145
:100F70002046FFF795FE20680169C943490609D458
:100F8000C168C943490605D46FF04001016120469C
:100F900000F01BF820680169C94389060BD4C168B9
:100FA000C943890607D46FF0200101612046BDE8DE
:100FB0007040FFF776BE70BD704770470068B0F1B3
:100FC000804F01D1FFF718BB704770477047000092
:100FD00070B5026804461068D168536910F00F0FAD
:100FE00051D003F0010501F4907635435DD0C2077E
:100FF00005D0CA0503D5E26B42F00102E263420765
:1010000005D5DA0703D0E26B42F00202E263820701
:1010100005D5DA0703D0E26B42F00402E26302076F
:1010200005D5DA0703D0E26B42F00802E263E26B17
:10103000002A34D0800604D5880602D5204600F068
:10104000DBFE20684069E16BC0F3801001F008010D
:101050000143204624D000F0C1FE206841694906C2
:101060001AD5416921F040014161606BA0B11B4973
:101070004163606BFFF714F9002810D0606B416B7F
:10108000BDE87040084783060FD58B060DD5204676
:10109000BDE8704000F0B0BE2046FFF797FF70BD7E
:1010A000FFF794FF0020E06370BD030606D50B0632
:1010B00004D52046BDE8704000F046BF4006F3D599
:1010C0004806F1D5D168204621F04001D1602021A9
:1010D00084F8391000F096F870BD0000CD1D0008AE
:1010E00070B5040004D094F83900002510B106E072
:1010F000012070BD84F83850204600F023F82420E9
:1011000084F839002068C16821F40051C16020468C
:1011100000F0BEFE2068016921F490410161206861
:10112000416921F02A0141612068C16841F4005100
:10113000C160E563202084F8390084F83A0000207B
:1011400070BD000030B585B0002400940194029475
:1011500003940068184988422CD11848816941F4E9
:1011600080418161816901F480410491816941F08C
:10117000040181618069124D00F0040004904FF475
:1011800000700090022001900320039069462846D9
:10119000FFF71EF92815CDE9000469462846029498
:1011A000FFF716F9002205212520FFF7ABFA2520CD
:1011B000FFF79AFA05B030BD003801400010024038
:1011C00000080140704790F83930202B18D1A9B1A0
:1011D000A2B190F83830012B12D001628284C2840F
:1011E0000021C163212280F8392080F8381000687E
:1011F000C16841F08001C160002070470120704744
:10120000022070477047FEE730B585B000241248D1
:1012100001940394816941F040018161816901F089
:1012200040010491816941F00401816180690125D7
:1012300000F0040004901C200090694602950748C5
:10124000FFF7C6F802200095CDE901406946044841
:10125000FFF7BEF805B030BD001002400018014095
:10126000000801402DE9F04385B000241C4800949B
:10127000019402940394816941F040018161816984
:1012800001F040010491816941F0080181618069A8
:10129000DFF8508000F00800049001222021404631
:1012A000FFF79EF9DFF84090012220214846FFF722
:1012B00097F920250227012603970095CDE90164BF
:1012C00069464046FFF784F803970095CDE901642D
:1012D00069464846FFF77CF805B0BDE8F08300009A
:1012E0000010024000180140000C014010B59CB0F5
:1012F000FFF7B8FFFFF788FF1C2216496846FEF784
:101300007FFF0021684600F0B9FE134C11491C22F2
:1013100060601C3107A8FEF773FF002107A800F0EA
:10132000ADFE0C49A0601C2238310EA8FEF768FF04
:1013300000210EA800F0A2FE0649E0601C225431F4
:1013400015A8FEF75DFF002115A800F097FE2061AB
:101350001CB010BDAC2C0008180000202DE9F04F87
:1013600085B000244048009401940294039481695C
:1013700041F040018161816901F04001049181697E
:1013800041F010018161816901F0100104918169CE
:1013900041F004018161816901F0040104918169D6
:1013A00041F480718161816901F4807104918169E6
:1013B00041F00801816180692C4F00F00800049021
:1013C000012220213846FFF70BF9DFF8A4A0002204
:1013D00002215046FFF704F9DFF898B04FF4006996
:1013E000002249465846FFF7FBF8012220212248F7
:1013F000FFF7F6F81C2001258DE8310069463846D4
:10140000FEF7E6FF4FF020080226CDF80080039695
:10141000CDE9015469463846FEF7DAFF0327039702
:101420000096CDE9015469465046FEF7D1FFCDE95B
:101430000054694611480296FEF7CAFFCDF80090A5
:101440000397CDE9015469465846FEF7C1FFCDF830
:1014500000800396CDE9015469460748FEF7B8FFBE
:1014600005B0BDE8F08F00000010024000180140F8
:101470000010014000200140000C01400008014024
:1014800010B586B000241748009401940294039488
:10149000049413490594016041F61F41C0E9011409
:1014A0002821C0E903148461FFF71DFC08B1FEF791
:1014B000F6FE4FF48050009069460A48FFF75DFC45
:1014C00008B1FEF7ECFE049404A906480594FFF762
:1014D000E9FB002801D0FEF7E2FE06B010BD0000D7
:1014E00000040040282400200C4810B50A4901607F
:1014F0004FF416514160002181600C22C160C0E9A7
:1015000004128161C161FFF7EBFD002803D0BDE843
:101510001040FEF7C4BE10BD003801406824002012
:1015200010B50B4C207001206070080AA070E170AB
:10153000100A2071627106212046FEF799FE010A09
:10154000A171E0712046BDE81040082100F0DEBA2C
:101550009C08002010B50B4C207002206070080A17
:10156000A070E170100A2071627106212046FEF71A
:101570007FFE010AA171E0712046BDE810400821FC
:1015800000F0C4BA9C08002010B50B4C207003205A
:101590006070080AA070E170100A20716271062163
:1015A0002046FEF765FE010AA171E0712046BDE804
:1015B0001040082100F0AABA9C08002010B5012AAA
:1015C0001CD10F4A32F811200AB14FF47F420D4C62
:1015D000207005206070080AA070E170100A207168
:1015E000627106212046FEF743FE010AA171E071F7
:1015F0002046BDE81040082100F088BA10BD000068
:10160000641100209C08002010B5012A1AD10E4C4C
:10161000207006206070080AA07004F58B50E170FD
:1016200030F81100010A2171607106212046FEF791
:101630001FFE010AA171E0712046BDE8104008219B
:1016400000F064BA10BD00009C0800202DE9F041B4
:101650000B461144244D64292CD2D408510700D0E4
:10166000641C002124E04E0702D105EBD107FE7176
:1016700005EBD106DFF874E0F77903EB010C7F0886
:10168000F7713EF81CC0BCF1000F02D047F0800794
:10169000F771571EB94209D1570707D0F77902F001
:1016A000070CCCF1080C27FA0CF7F771491C89B22A
:1016B0009142D8D328700F206870180AA870EB7078
:1016C000100A28716A71AC710748E11DFEF7D0FD60
:1016D000020A29190934CA710872E1B2BDE8F04161
:1016E000014800F013BA00009C080020641100209B
:1016F0002DE9F04115464A191A4CB2F57A7F11D2FC
:10170000002204F58B570BE08B1804EB420637F8E8
:101710001330521C4FEA132C86F807C03372D2B232
:10172000AA42F1D3207010206070080AA070E17006
:10173000280A207165716800A071072000EB450040
:1017400081B20848FEF794FD04EB4501020ACA7114
:101750000872092000EB4500BDE8F041C1B2014824
:1017600000F0D4B99C08002030B41446052920D0DC
:101770000ADC012913D0022916D0032928D12146D9
:1017800030BC1A46FFF700BF062917D00F291AD020
:1017900010291DD1214630BC1A46FFF7A9BF2146AA
:1017A00030BC1A46FFF7BCBE214630BC1A46FFF7D4
:1017B000D1BE214630BC1A46FFF700BF214630BCDF
:1017C0001A46FFF721BF214630BC1A46FFF73EBF3D
:1017D00030BC7047FEE70000044C20212046FEF795
:1017E000F8FE642000F03EFCF7E70000001801401E
:1017F00010B500F0E3F8074C2078022805D0032844
:1018000006D0322000F02EFCF6E700F00BFCF8E7E3
:1018100010BD0000180000202DE9F04310490026FB
:101820000B894A899818642815D20020DFF8349073
:101830000D4F0CE009EBD00503EB0008EC7804F049
:10184000010C640827F818C0401CEC7080B290426C
:10185000F0D30E7101E001200871CE70BDE8F08375
:10186000080000209C000020641100202DE9F043B6
:10187000114900260B894A899818642817D2DFF885
:101880003C90002009F580570DE000BF09EBD00522
:1018900003EB0008EC7804F0010C640827F818C08A
:1018A000401CEC7080B29042F0D30E7101E0022037
:1018B0000871CE70BDE8F083080000209C00002075
:1018C000F0B5114B1149002798780A89440810197E
:1018D000B0F57A7F14D20020DFF834E00CE000BFCE
:1018E00003EB4006151896F803C03679401C06EB4A
:1018F0000C262EF81560C0B2A042F1D30F7101E0A2
:1019000003200871CF70F0BD9C000020080000206B
:101910002C12002010B50A49084800244A7943894E
:10192000097913B1FF2901D001E001B91AB10521EC
:101930000171C47010BD0471FBE7000008000020B5
:101940009C0000200848094A808841BA0848038959
:1019500032F8133000228B4201D1027101E00621DE
:101960000171C270704700009C000020FC1900202B
:101970000800002006480022808841BA05484389B3
:10198000994201D1027101E00F210171C2707047CB
:101990009C0000200800002006480022808841BAF0
:1019A00005484389994201D1027101E0102101717A
:1019B000C27070479C000020080000200F480121E1
:1019C000022201804280032282800422C28042F2ED
:1019D000F212028140F29A2242817D228281A0F697
:1019E00098000022018542858185C1850286428654
:1019F0008186C1860187428770470000FC1900205C
:101A0000704700002DE9F0413D4CA078012875D1C8
:101A10003C4D217800262878884267D168780E27C7
:101A200001281AD0022818D0032816D0052814D06F
:101A3000062812D00F2810D010280ED0812842D0AE
:101A4000822840D083283ED085283CD086283AD0B2
:101A50008F2838D0902836D048E0A089801E81B2E7
:101A60002848FEF705FCA189294431F8021C49BA2F
:101A7000884226D16878052814D006DC01280ED0CB
:101A8000022809D0032831D112E0062813D00F28EC
:101A90000BD010282AD111E0FFF7E8FE26E0FFF76F
:101AA000BBFE23E0FFF736FF20E0FFF763FF1DE0FA
:101AB000FFF706FF1AE0FFF745FF17E0FFF76CFF9F
:101AC00014E0277112E0A878012806D0022806D079
:101AD000032807D0042808D106E00B2000E00C20E2
:101AE000207102E00D20FBE72771E670A670A68149
:101AF000012202210448FEF773FDE670BDE8F08183
:101B0000080000209C0000200010014070B50B4E22
:101B10000C460546012202213046FEF761FD2246B1
:101B200029460748FFF74FFB064901200022C870ED
:101B30003046BDE870400221FEF752BD0010014062
:101B40006824002008000020034843890289417866
:101B50000078FFF709BE00000800002010B5012141
:101B60001848FEF731FD184900230C783CB10022DB
:101B7000012C08D0022C0AD0032C20D115E0F0B99A
:101B8000012008701BE088B90220087016E010B12F
:101B90000A70022313E04868401C486064280EDD88
:101BA0000320087003464A6009E008B10A7006E0A5
:101BB0004868401C4860322801DD03234A6018460B
:101BC00010BD000000080140000000200A2000F0C5
:101BD00049FAFBE710B5502080F31188BFF34F8F0F
:101BE000BFF36F8F00F09CFE18B104494FF0805096
:101BF0000860002080F3118810BD000004ED00E0B3
:101C000030B58FB028216846FEF713FB14210AA8CF
:101C1000FEF70FFB01210804CDE900100024029417
:101C200002250491CDE907504FF4E0100990684671
:101C3000FEF7A6FE0F20CDE90A056802CDE90C40AB
:101C400002210AA80E94FEF78FFD0FB030BD0000F0
:101C50000D48016841F00101016041680B4A1140E3
:101C6000416001680A4A11400160016821F4802145
:101C70000160416821F4FE0141604FF41F01816061
:101C80000449C00308607047001002400000FFF8DC
:101C9000FFFFF6FE08ED00E00148FFF7DAB80000AC
:101CA000A82400200148FFF7D4B800002824002011
:101CB000F0B502681C4B1D4D1D4E1E4F1E4C4FF0C3
:101CC000804C984209D0A04207D0604505D0A84278
:101CD00003D0B04201D0B84204D122F0700E4A685D
:101CE00042EA0E02984209D0A04207D0604505D0D2
:101CF000A84203D0B04201D0B84203D122F44075CB
:101D0000CA682A434D6922F080022A4302608A6829
:101D1000C2620A688262984201D0A04201D1096978
:101D2000016301214161F0BD002C0140000400402D
:101D300000080040000C00400034014010B58468E9
:101D400042EA032224F47F440A432243826010BD06
:101D5000826822F070020A4342F0070181607047F6
:101D600010B5036A046A24F001040462846924F053
:101D7000F00444EA021423F00A020A438461026276
:101D800010BD10B5036A23F0100303628369046A6F
:101D900023F4704343EA023224F0A00343EA011122
:101DA0008261016210BD0000064C074DFFF7D6FEB0
:101DB000207020212846FEF70CFCC82000F052F9C4
:101DC000F4E7000018000020000C014010B5406A44
:101DD0000021C185C184FFF7F9F810BD0168CA6808
:101DE00022F49072CA6001684A6922F001024A61D5
:101DF000202180F83A10704710B590F83A10222947
:101E000001D0022010BD8168B1F5805F11D0016959
:101E1000002901681FD0496801F07F03816A4A1CCC
:101E200082620B70C18D491E0904090CC18518D04E
:101E30002BE00269816A002A0268526805D0D2B29A
:101E40000A80816A491C8162ECE7C2F308020A80B9
:101E5000816A891CF7E74A68816A4B1C83620A70B1
:101E6000E0E70168CA6822F02002CA600168CA6817
:101E700022F48072CA6001684A6922F001024A6154
:101E8000202180F83A10FFF79DF9002010BD0000D6
:101E90002DE9F041044600680169E26821F44051EF
:101EA000114301612169A068084361690843216801
:101EB000CA6841F20C639A430243CA6020684169D0
:101EC000A26921F44071114341611E4920686425D3
:101ED0003226884202D1FEF70DFD01E0FEF7FAFC42
:101EE00000EBC00101EB001160686FF01807800083
:101EF000B1FBF0F2B2FBF5F2B1FBF0F37A4303EB86
:101F00008202B1FBF0F306EB0212B2FBF5F2B3FB77
:101F1000F5F302F0F00202EB0312B1FBF0F3B1FBB8
:101F2000F0F0B0FBF5F0784303EB800006EB001017
:101F3000B0FBF5F0216800F00F0010448860BDE8A8
:101F4000F08100000038014090F83910212901D0BB
:101F5000022070478168B1F5805F016A0BD04A1C8E
:101F60000262026809785160C18C491E0904090C9B
:101F7000C1840ED017E009880268C1F308015160DE
:101F800001690029016A02D0491C0162ECE7891C41
:101F9000FBE70168CA6822F08002CA600068C16875
:101FA00041F04001C1600020704700000148FFF788
:101FB0000FB8000068240020FEE70907090E00287A
:101FC00004DB00F1E02080F80014704700F00F00FF
:101FD00000F1E02080F8141D704702E008C8121FCD
:101FE00008C1002AFAD170477047002001E001C102
:101FF000121F002AFBD17047FEF706FBFFF700FE19
:10200000FFF7ACF9FFF770FAFFF73AFAFFF76EF94E
:1020100000F02FF8FEE701460020842900D0C81CFC
:102020007047000070B50E4C0125607988B1012819
:102030000ED1FFF7E7FC2179032041B16571A17949
:10204000491CC9B2A171022902D30021A17160719A
:1020500070BDFFF779FDE0780028F9D0657170BD9B
:102060000800002010B500B9012000F01BFB002083
:1020700010BD10B500F03CFB002010BD7FB50D4633
:1020800004464169B0F9080081B1A16971B1FFF757
:10209000C2FFD4E905128DE80700D4E900102B46F1
:1020A000226900F012FC039004B070BDFFF7B3FF8B
:1020B00003A9CDE90001208A2B4682B2D4E90010A1
:1020C00000F0D6FB012801D00020EDE70398EBE7F4
:1020D0002DE9F041184C0F46054666692068001D41
:1020E00000F01CFA38B9206890F82C1001208840C4
:1020F000A1698143A161681C07D137B12168BDE89E
:10210000F0410E48091D00F04DBA20683544B54233
:102110004560216805D2A068BDE8F041091D00F0C6
:1021200029BA6068091D00F025FA206B854200D2AB
:102130002563BDE8F08100003C000020B8270020A6
:102140002DE9F041054600F039FA2D4C2069401C7C
:10215000206120682B4F10B1E06930B32BE025607F
:102160002069012827D1002606EB860007EB8000B6
:1021700000F0F2F9761C202EF6D3234800F0ECF99B
:102180002148143000F0E8F91F48283000F0E4F945
:102190001D483C3000F0E0F91B48503000F0DCF9FD
:1021A000194860601430A06005E02068E96AC06AE0
:1021B000884200D82560E06A401CE0626864E96AF1
:1021C0000120A26988401043A06101EB810007EB68
:1021D0008000291D00F0E6F900F010FAE0690028FF
:1021E0000CD02068E96AC06A884207D207494FF0DC
:1021F00080500860BFF34F8FBFF36F8FBDE8F08151
:102200003C000020E82400206827002004ED00E0C6
:1022100010B5044690F8590058B101280CD0022896
:102220000FD0502080F31188BFF34F8FBFF36F8F13
:10223000FEE7206B00F0F6F92046BDE8104000F004
:10224000F1B910BD10484FF44061420706D0C01DDF
:102250000D4920F00700411AC1F540610B4A0023E7
:102260000144C2E900030839103A21F00701116066
:102270004B600B600B1AC0E9001393604FF00040F5
:102280005360D06070470000CC27002088000020F9
:10229000144E154CA6F52F774FF08058DFF84C9070
:1022A00012E000BF00F08AF9F068C568281D00F050
:1022B00035F92069401E2061E068401EE06000F0B2
:1022C0009DF92846FFF7A4FFE0680028EAD13868A6
:1022D0000128F9D9C9F80080BFF34F8FBFF36F8F82
:1022E000F2E70000A42700203C00002004ED00E0FD
:1022F0002DE9F0470E46DDE9098417468246910034
:102300009946089DA522206BFDF78CFF6FF0030115
:10231000206B01EB8701084420F00707780707D0FE
:10232000502080F31188BFF34F8FBFF36F8FFEE70C
:102330002218315C82F83410315C11B1401C102835
:10234000F6D3002684F84360202D00D31F25E562D4
:10235000C4E91356201D00F00AF904F1180000F03A
:1023600006F92461C5F120006462A061666584F805
:1023700058604A465146384600F0BEF82060B8F131
:10238000000F01D0C8F80040BDE8F08730B5114912
:1023900000E011460A688242FBD34B685C18844215
:1023A00003D1406818444860084643681C189442AA
:1023B00009D1084C103C2468A24209D052681A4442
:1023C00042600A6812680260814200D0086030BD35
:1023D0000460F9E78800002006484168096829B1CF
:1023E0004168C968C9684968016370474FF0FF31A7
:1023F000FAE700003C00002008484068401C4FF00D
:10240000500080F3118804D0BFF34F8FBFF36F8F5C
:10241000FEE7BFF34F8FBFF36F8FFEE79000002002
:102420002DE9F0410546002700F098F9314E30685B
:1024300008B9FFF707FFF06805424BD1C5B308356F
:1024400068070ED005F00700C0F1080005446807D2
:1024500007D0502080F31188BFF34F8FBFF36F8FE9
:10246000FEE72DB37068854234D82248103001460B
:102470000C6801E020460C466168A94202D221683E
:102480000029F7D131688C4224D0076821680160A7
:1024900060680837411B10290FD96019420708D01E
:1024A000502080F31188BFF34F8FBFF36F8FFEE78B
:1024B00010E041606560FFF769FF61687068401A6D
:1024C0007060B268904200D2B060F06801430020B2
:1024D000C4E9000100F088FA780707D0502080F3A3
:1024E0001188BFF34F8FBFF36F8FFEE73846BDE80B
:1024F000F08100007800002010B5031F4FF08074B9
:102500001C601B1F21F001011960191F024B0B6099
:10251000143940380A6010BDF9230008D0E90132AF
:1025200001699A60D0E901235A604A68824201D168
:1025300082684A60002202610868401E08600868DC
:1025400070470000034B036003F15C0008608020CB
:1025500010607047CC21002000F108014FF0FF32DD
:10256000C0E90112C16001610021016070470021D2
:102570000161704730B50B685A1C02D000F10802A7
:1025800002E0026904E02246546825689D42FAD9B7
:1025900053684B6099608A60516008610168491C0A
:1025A000016030BD42684A6093688B6093685960EF
:1025B000916008610168491C01607047502080F3F8
:1025C0001188BFF34F8FBFF36F8F0A494868401CD3
:1025D000486001280CD10848006810F0FF0F07D0B0
:1025E000502080F31188BFF34F8FBFF36F8FFEE74A
:1025F000704700009000002004ED00E008494868A2
:1026000028B1401E486001D180F3118870475020E6
:1026100080F31188BFF34F8FBFF36F8FFEE7000089
:102620009000002070B5002827D0144DA0F10804B8
:102630006168E868014207D1502080F31188BFF338
:102640004F8FBFF36F8FFEE722683AB1502080F3BF
:102650001188BFF34F8FBFF36F8FFEE78143616037
:1026600000F07CF860686968084468602046FFF7FD
:102670008DFEBDE8704000F0B7B970BD7800002055
:102680004FF0E02000210161816105494FF47A7229
:102690000968B1FBF2F1491E4161072101617047F0
:1026A0003800002010B5020014D00F48806B38B1FC
:1026B000502080F31188BFF34F8FBFF36F8FFEE779
:1026C00000F04CF800211046FFF702FD00F08CF9F5
:1026D000002807D105494FF080500860BFF34F8FA5
:1026E000BFF36F8F10BD00003C00002004ED00E040
:1026F00010B586B00024039405AA04A903A8049485
:10270000FFF720FFDDE903010094CDE9011000236C
:102710000EA11048059A00F0D8F80F490028486328
:1027200011D0502080F31188BFF34F8FBFF36F8F0C
:102730004FF0FF3008630120C8614C6106B0BDE86E
:10274000104000F041B806B010BD000049444C45AF
:1027500000000000912200083C0000200248816B2C
:10276000491C8163704700003C0000201448816BC5
:1027700011B1012141627047002141628169B1FAC2
:1027800081F1C1F11F0101EB81020E4951F82230A4
:102790006BB101EB820101F108034A6852684A609B
:1027A0009A4201D152684A60D16801607047502056
:1027B00080F31188BFF34F8FBFF36F8FFEE70000E8
:1027C0003C000020E82400201CB526490878019030
:1027D000FF20087008788DF800009DF800009DF833
:1027E000002000F0F000904207D0502080F31188C4
:1027F000BFF34F8FBFF36F8FFEE79DF800001A4BBA
:1028000000F0500018700720986005E09DF8002047
:1028100052008DF80020401E9DF800201206F5D4CD
:102820009860032807D0502080F31188BFF34F8FA2
:10283000BFF36F8FFEE74FF4407098600198087007
:102840000A48016841F470010160016841F070417B
:102850000160FFF715FF00205860FDF785FC0020A0
:102860001CBD000000E400E09000002020ED00E02E
:102870002DE9FF5F8346DDE90E87994616468A46B5
:102880009000FFF7CDFD05001CD05C20FFF7C8FDD0
:10289000040014D00020256384F85900CDE90240DB
:1028A000CDE900874B46324651465846FFF720FD9A
:1028B0002046FFF745FC012004B0BDE8F09F284604
:1028C000FFF7B0FE4FF0FF30F6E7F0B585B0DDE979
:1028D0000B640A9DA6B1DCB15C2700972663022633
:1028E00084F85960002604AFCDE90246CDE90057CF
:1028F000FFF7FEFC2046FFF723FC049805B0F0BD6F
:10290000502080F31188BFF34F8FBFF36F8FFEE726
:10291000502080F31188BFF34F8FBFF36F8FFEE716
:102920002DE9F0412E4C0027A06B40B1206A401CDD
:102930002062606A00B101273846BDE8F08166690F
:10294000761C666113D16068006838B1502080F34E
:102950001188BFF34F8FBFF36F8FFEE76068A168E8
:102960006160A060A06A401CA062FFF735FD206B8B
:10297000DFF87080864209D36068006880B16068C3
:10298000C068C568686886420DD220632068C06A46
:1029900000EB800158F821000128CAD90127C8E7B7
:1029A0004FF0FF30F1E7281DFFF7B8FDA86A18B116
:1029B00005F11800FFF7B2FDE86A0121A269814024
:1029C0001143A16100EB800108EB8100291DFFF795
:1029D000E9FDE86A2168C96A8842CDD30127CBE7BF
:1029E0003C000020E82400202DE9F0472C4D002475
:1029F0002746A86B38B1FFF7E1FDA86B401EA8631E
:102A0000A86B40B146E0502080F31188BFF34F8F90
:102A1000BFF36F8FFEE72969224E0120D1B3A6F5DF
:102A20002A7980463068E8B1F068C46804F118007B
:102A3000FFF774FD201DFFF771FDE06AAA6908FA2F
:102A400000F11143A96100EB800109EB8100211D18
:102A5000FFF7A8FDE06A2968C96A8842E2D3C5F891
:102A60002480DFE70CB1FFF7B7FC2C6A44B146467F
:102A7000FFF756FF00B16E62641EF9D10020286294
:102A8000686A38B10849012738070860BFF34F8FDB
:102A9000BFF36F8FFFF7B2FD3846BDE8F087000047
:102AA0003C0000209027002004ED00E000C18140A0
:102AB00001C0804101C0804100C1814001C080410E
:102AC00000C1814000C1814001C0804101C08041FE
:102AD00000C1814000C1814001C0804100C18140EE
:102AE00001C0804101C0804100C1814001C08041DE
:102AF00000C1814000C1814001C0804100C18140CE
:102B000001C0804101C0804100C1814000C18140BD
:102B100001C0804101C0804100C1814001C08041AD
:102B200000C1814000C1814001C0804101C080419D
:102B300000C1814000C1814001C0804100C181408D
:102B400001C0804101C0804100C1814000C181407D
:102B500001C0804101C0804100C1814001C080416D
:102B600000C1814000C1814001C0804100C181405D
:102B700001C0804101C0804100C1814001C080414D
:102B800000C1814000C1814001C0804101C080413D
:102B900000C1814000C1814001C0804100C181402D
:102BA00001C0804101C0804100C1814000C0C1011D
:102BB000C30302C2C60607C705C5C404CC0C0DCDAD
:102BC0000FCFCE0E0ACACB0BC90908C8D81819D91D
:102BD0001BDBDA1A1EDEDF1FDD1D1CDC14D4D5154D
:102BE000D71716D6D21213D311D1D010F03031F13D
:102BF00033F3F23236F6F737F53534F43CFCFD3D6D
:102C0000FF3F3EFEFA3A3BFB39F9F83828E8E9295C
:102C1000EB2B2AEAEE2E2FEF2DEDEC2CE42425E50C
:102C200027E7E62622E2E323E12120E0A06061A17C
:102C300063A3A26266A6A767A56564A46CACAD6D2C
:102C4000AF6F6EAEAA6A6BAB69A9A86878B8B9799C
:102C5000BB7B7ABABE7E7FBF7DBDBC7CB47475B5CC
:102C600077B7B67672B2B373B17170B050909151BC
:102C70009353529296565797559594549C5C5D9DEC
:102C80005F9F9E5E5A9A9B5B9959589888484989DC
:102C90004B8B8A4A4E8E8F4F8D4D4C8C448485458C
:102CA000874746868242438341818040542D0008F5
:102CB000CD1B0008000000000000000080000000A4
:102CC0000000000000000000602D0008A91D0008A1
:102CD000FEFF000000000000800000000000000077
:102CE00000000000342D0008F11700080200000069
:102CF00000000000000100000000000000000000D3
:102D0000442D0008D9170008000000000000000052
:102D10008000000000000000000000000000000033
:102D2000000000000102030406070809000000007B
:102D3000010203046D624D617374657253657276AE
:102D4000696365006D624D617374657241505054E2
:102D500061736B0064656661756C745461736B00BC
:102D60006D795461736B315F417070008C2D000878
:102D7000000000209C000000DA1F0008282E000838
:102D80009C00002034370000EA1F0008000000000B
:102D9000000000000206000008000000050001001D
:102DA0000000000000000000000000000000000023
:102DB0000000000000000000010000001000000002
:102DC000000000000024F4000000000000000000EB
:102DD00000000000000000000000000000000000F3
:102DE00000000000000000000000000000000000E3
:102DF00000000000000000000000000000000000D3
:102E000000000000000000000000000000000000C2
:102E100000000000000000000000000000000000B2
:082E2000AAAAAAAA0000000002
:0400000508000131BD
:00000001FF
